:1000000012C019C018C017C016C015C014C013C044
:1000100012C011C010C00FC00EC00DC00CC00BC06C
:100020000AC009C008C011241FBECFE5D4E0DEBF5E
:10003000CDBFABD02BC2E4CFCF92DF92EF92FF9235
:10004000C12CD12C760120E2C216D104E104F104C6
:1000500044F460FF21C0C59A95958795779567957B
:1000600003C028B32F7128BBC49A28B32F7228BBB2
:100070002FEFC21AD20AE20AF20A28E2C216D1040B
:10008000E104F10401F7C39A88B3877388BBFF903A
:10009000EF90DF90CF90089528B32F7128BBDCCF6D
:1000A0002F923F924F925F926F927F928F929F9288
:1000B000AF92BF92CF92DF92EF92FF920F931F9376
:1000C000CF93DF93CDB7DEB72E970FB6F894DEBF90
:1000D0000FBECDBF9B01AC018E010F5E1F4FCE0145
:1000E00001967C016AE0462E512C612C712CCA01CC
:1000F000B901A301920176D1F801729362938F0145
:10010000EE15FF05A1F71E01F1E12F0E311C30E4C1
:10011000432E32E2532E652C752CC12CD12C760146
:100120004AE0842E912CA12CB12CF801A191B1911F
:100130008F01A301920150D1C60ED71EE81EF91EF1
:10014000C301B201A50194014DD129013A01021563
:10015000130559F7C701B6012E960FB6F894DEBF06
:100160000FBECDBFDF91CF911F910F91FF90EF9008
:10017000DF90CF90BF90AF909F908F907F906F90C7
:100180005F904F903F902F90089517BA8FE388BBF0
:100190002FEF81EE94E0215080409040E1F700C0C5
:1001A00000008FE387BB18BAEFEFF1EE24E0E150D7
:1001B000F0402040E1F700C0000014BA85BB8FEF8B
:1001C00081BB12BA82B3876082BB8FE799EAE3E012
:1001D00081509040E040E1F700C0000082B3887F8A
:1001E00082BBFFE729EA83E0F15020408040E1F73D
:1001F00000C0000082B3876082BB9FE7E9EAF3E0BA
:100200009150E040F040E1F700C0000082B3887FE9
:1002100082BB2FE789EA93E0215080409040E1F7CC
:1002200000C0000082B3887F82BB919A81E090E099
:1002300002E310E0A12CB12CC0E0D0E0412C512C05
:100240003201A0E1CA2EABECDA2EA8E3EA2EF12CA3
:10025000E0EECE16E7E6DE06E5E3EE06F10484F016
:10026000F1ECCF16FBEFDF06F9E3EF06F1047CF0CB
:10027000E0ECCE2EEBEFDE2EE9E3EE2EF12C07C004
:10028000F0EECF2EF7E6DF2EF5E3EF2EF12C892BE3
:1002900021F0C701B60104DFCFDE9D992DC0209764
:1002A00019F080E090E0D4CF28EEA21623E0B20649
:1002B000C9F482B3887F82BB0A30110521F4919A78
:1002C00002E310E00DC00233110539F4F80180811A
:1002D0008460808308EE13E003C0909A0AE010E087
:1002E00031E001C030E020E0FFEFAF1ABF0A80E04C
:1002F00090E0C32FD22FACCF9C992BC02097A9F4AC
:1003000028EEA21623E0B20659F4C801AA2797FDE9
:10031000A095BA2FC80ED91EEA1EFB1EC1E0D0E080
:100320008FEFA81AB80ACE0102C080E090E0E8EC96
:100330004E16EFEA5E066104710409F047C0C80179
:10034000AA2797FDA095BA2FC80ED91EEA1EFB1E3C
:1003500035C09B9B0AC080E090E0A12CB12CC0E08E
:10036000D0E0412C512C320173CF2097A9F428EE14
:10037000A21623E0B20659F4C801AA2797FDA0955A
:10038000BA2FC81AD90AEA0AFB0AC1E0D0E08FEFF7
:10039000A81AB80ACE0102C080E090E0E8EC4E1640
:1003A000EFEA5E066104710489F4C801AA2797FD8B
:1003B000A095BA2FC81AD90AEA0AFB0A81E090E090
:1003C00070EE472E7BEA572E612C712CFFEF4F1AEF
:1003D0005F0A6F0A7F0A3CCFB7FF20C01FD0821B85
:1003E000930B0895052E97FB16F400940FD057FD3C
:1003F00005D01ED007FC02D046F408C050954095A9
:10040000309521953F4F4F4F5F4F089590958095C0
:10041000709561957F4F8F4F9F4F08952BD0A59F6B
:10042000900DB49F900DA49F800D911D11240895EF
:10043000A1E21A2EAA1BBB1BFD010DC0AA1FBB1FE8
:10044000EE1FFF1FA217B307E407F50720F0A21B5A
:10045000B30BE40BF50B661F771F881F991F1A94C7
:1004600069F760957095809590959B01AC01BD01F1
:10047000CF010895A29FB001B39FC001A39F01D0F7
:10048000B29F700D811D1124911D0895F894FFCF26
:00000001FF
